{
  "address": "0x3C472646acbCCEdeFDd287d2749E7c9b77e05716",
  "abi": [
    {
      "inputs": [],
      "name": "token",
      "outputs": [
        {
          "internalType": "contract IERC20",
          "name": "",
          "type": "address"
        }
      ],
      "stateMutability": "view",
      "type": "function"
    }
  ],
  "transactionHash": "0x0a820130925160f86eb70a1f68a87dc1710d1e98e5c96bf169a39f3dc9a94494",
  "args": [],
  "numDeployments": 1,
  "solcInputHash": "aa09bbb4aedece91c5b1b2a2f4eb7095",
  "bytecode": "0x6080604052348015600f57600080fd5b5060918061001e6000396000f3fe6080604052348015600f57600080fd5b506004361060285760003560e01c8063fc0c546a14602d575b600080fd5b600054603f906001600160a01b031681565b6040516001600160a01b03909116815260200160405180910390f3fea26469706673582212209d3bad29ca68d2ba0845acd1e2d28729b5eb8a2dabf1d53a7b1dc24f8fe7493864736f6c634300080a0033",
  "devdoc": {
    "kind": "dev",
    "methods": {},
    "version": 1
  },
  "userdoc": {
    "kind": "user",
    "methods": {},
    "version": 1
  },
  "storageLayout": {
    "storage": [
      {
        "astId": 399,
        "contract": "contracts/TokenFIx.sol:TokenFix",
        "label": "token",
        "offset": 0,
        "slot": "0",
        "type": "t_contract(IERC20)77"
      }
    ],
    "types": {
      "t_contract(IERC20)77": {
        "encoding": "inplace",
        "label": "contract IERC20",
        "numberOfBytes": "20"
      }
    }
  }
}