{
  "address": "0xA4F185c75855265A3A5918e15797849f621De677",
  "abi": [
    {
      "inputs": [
        {
          "internalType": "contract IERC20",
          "name": "_oldToken",
          "type": "address"
        },
        {
          "internalType": "contract IERC20",
          "name": "_newToken",
          "type": "address"
        }
      ],
      "stateMutability": "nonpayable",
      "type": "constructor"
    },
    {
      "inputs": [
        {
          "internalType": "address",
          "name": "tokenAddress",
          "type": "address"
        }
      ],
      "name": "approve",
      "outputs": [],
      "stateMutability": "nonpayable",
      "type": "function"
    },
    {
      "inputs": [],
      "name": "newToken",
      "outputs": [
        {
          "internalType": "contract IERC20",
          "name": "",
          "type": "address"
        }
      ],
      "stateMutability": "view",
      "type": "function"
    },
    {
      "inputs": [],
      "name": "oldToken",
      "outputs": [
        {
          "internalType": "contract IERC20",
          "name": "",
          "type": "address"
        }
      ],
      "stateMutability": "view",
      "type": "function"
    },
    {
      "inputs": [
        {
          "internalType": "uint256",
          "name": "swapAmount",
          "type": "uint256"
        }
      ],
      "name": "swap",
      "outputs": [],
      "stateMutability": "nonpayable",
      "type": "function"
    }
  ],
  "transactionHash": "0x5d71721382075d540d05f17ba34bb88ae8cd8c0b8535e70ea05945f0bc42f055",
  "args": [
    "0x44b96717AD68d11F0D3Bf4389B788E7e7EE179Eb",
    "0x3fA6552C02bd371f2e100D5FAAD486686ce5C5c2"
  ],
  "numDeployments": 3,
  "solcInputHash": "cb9221fc9eacfdb6616c515f5e33f827",
  "bytecode": "0x608060405234801561001057600080fd5b506040516106df3803806106df83398101604081905261002f9161007c565b600080546001600160a01b039384166001600160a01b031991821617909155600180549290931691161790556100af565b80516001600160a01b038116811461007757600080fd5b919050565b6000806040838503121561008f57600080fd5b61009883610060565b91506100a660208401610060565b90509250929050565b610621806100be6000396000f3fe608060405234801561001057600080fd5b506004361061004c5760003560e01c806394b918de14610051578063b31c710a14610066578063c42bd05a14610095578063daea85c5146100a8575b600080fd5b61006461005f3660046104ec565b6100bb565b005b600054610079906001600160a01b031681565b6040516001600160a01b03909116815260200160405180910390f35b600154610079906001600160a01b031681565b6100646100b6366004610505565b6101b3565b600080546040516370a0823160e01b81523360048201526001600160a01b03909116906370a0823190602401602060405180830381865afa158015610104573d6000803e3d6000fd5b505050506040513d601f19601f820116820180604052508101906101289190610535565b90508181101561017f5760405162461bcd60e51b815260206004820152601b60248201527f5377617020616d6f756e7420657863656564732062616c616e6365000000000060448201526064015b60405180910390fd5b600054610197906001600160a01b031633308561022d565b6001546101af906001600160a01b031630338561022d565b5050565b60405163095ea7b360e01b815230600482015260001960248201819052906001600160a01b0383169063095ea7b3906044016020604051808303816000875af1158015610204573d6000803e3d6000fd5b505050506040513d601f19601f82011682018060405250810190610228919061054e565b505050565b604080516001600160a01b0385811660248301528416604482015260648082018490528251808303909101815260849091019091526020810180516001600160e01b03166323b872dd60e01b17905261028790859061028d565b50505050565b60006102e2826040518060400160405280602081526020017f5361666545524332303a206c6f772d6c6576656c2063616c6c206661696c6564815250856001600160a01b031661035f9092919063ffffffff16565b8051909150156102285780806020019051810190610300919061054e565b6102285760405162461bcd60e51b815260206004820152602a60248201527f5361666545524332303a204552433230206f7065726174696f6e20646964206e6044820152691bdd081cdd58d8d9595960b21b6064820152608401610176565b606061036e8484600085610376565b949350505050565b6060824710156103d75760405162461bcd60e51b815260206004820152602660248201527f416464726573733a20696e73756666696369656e742062616c616e636520666f6044820152651c8818d85b1b60d21b6064820152608401610176565b600080866001600160a01b031685876040516103f3919061059c565b60006040518083038185875af1925050503d8060008114610430576040519150601f19603f3d011682016040523d82523d6000602084013e610435565b606091505b509150915061044687838387610451565b979650505050505050565b606083156104bd5782516104b6576001600160a01b0385163b6104b65760405162461bcd60e51b815260206004820152601d60248201527f416464726573733a2063616c6c20746f206e6f6e2d636f6e74726163740000006044820152606401610176565b508161036e565b61036e83838151156104d25781518083602001fd5b8060405162461bcd60e51b815260040161017691906105b8565b6000602082840312156104fe57600080fd5b5035919050565b60006020828403121561051757600080fd5b81356001600160a01b038116811461052e57600080fd5b9392505050565b60006020828403121561054757600080fd5b5051919050565b60006020828403121561056057600080fd5b8151801515811461052e57600080fd5b60005b8381101561058b578181015183820152602001610573565b838111156102875750506000910152565b600082516105ae818460208701610570565b9190910192915050565b60208152600082518060208401526105d7816040850160208701610570565b601f01601f1916919091016040019291505056fea2646970667358221220fbde30a44b76f93b614f8be509163e672cf75071a8b6f50a0cc9b2f9f0354db164736f6c634300080a0033",
  "devdoc": {
    "kind": "dev",
    "methods": {},
    "version": 1
  },
  "userdoc": {
    "kind": "user",
    "methods": {},
    "version": 1
  },
  "storageLayout": {
    "storage": [
      {
        "astId": 1131,
        "contract": "contracts/TokenFIx.sol:TokenFix",
        "label": "oldToken",
        "offset": 0,
        "slot": "0",
        "type": "t_contract(IERC20)77"
      },
      {
        "astId": 1134,
        "contract": "contracts/TokenFIx.sol:TokenFix",
        "label": "newToken",
        "offset": 0,
        "slot": "1",
        "type": "t_contract(IERC20)77"
      }
    ],
    "types": {
      "t_contract(IERC20)77": {
        "encoding": "inplace",
        "label": "contract IERC20",
        "numberOfBytes": "20"
      }
    }
  }
}