{
  "address": "0x8dF8E39103F196820EA56403733a79C60086608C",
  "abi": [
    {
      "inputs": [
        {
          "internalType": "contract IERC20",
          "name": "_oldToken",
          "type": "address"
        },
        {
          "internalType": "contract IERC20",
          "name": "_newToken",
          "type": "address"
        },
        {
          "internalType": "address",
          "name": "_admin",
          "type": "address"
        }
      ],
      "stateMutability": "nonpayable",
      "type": "constructor"
    },
    {
      "anonymous": false,
      "inputs": [
        {
          "indexed": false,
          "internalType": "address",
          "name": "oldAdmin",
          "type": "address"
        },
        {
          "indexed": false,
          "internalType": "address",
          "name": "newAdmin",
          "type": "address"
        }
      ],
      "name": "adminUpdated",
      "type": "event"
    },
    {
      "anonymous": false,
      "inputs": [
        {
          "indexed": false,
          "internalType": "address",
          "name": "claimer",
          "type": "address"
        },
        {
          "indexed": false,
          "internalType": "uint256",
          "name": "claimAmount",
          "type": "uint256"
        }
      ],
      "name": "tokenClaimed",
      "type": "event"
    },
    {
      "inputs": [
        {
          "internalType": "uint256",
          "name": "amount",
          "type": "uint256"
        }
      ],
      "name": "_adminTransfer",
      "outputs": [],
      "stateMutability": "nonpayable",
      "type": "function"
    },
    {
      "inputs": [],
      "name": "_adminTransferAll",
      "outputs": [],
      "stateMutability": "nonpayable",
      "type": "function"
    },
    {
      "inputs": [
        {
          "internalType": "address",
          "name": "_newAdmin",
          "type": "address"
        }
      ],
      "name": "_setAdmin",
      "outputs": [],
      "stateMutability": "nonpayable",
      "type": "function"
    },
    {
      "inputs": [],
      "name": "admin",
      "outputs": [
        {
          "internalType": "address",
          "name": "",
          "type": "address"
        }
      ],
      "stateMutability": "view",
      "type": "function"
    },
    {
      "inputs": [],
      "name": "newToken",
      "outputs": [
        {
          "internalType": "contract IERC20",
          "name": "",
          "type": "address"
        }
      ],
      "stateMutability": "view",
      "type": "function"
    },
    {
      "inputs": [],
      "name": "oldToken",
      "outputs": [
        {
          "internalType": "contract IERC20",
          "name": "",
          "type": "address"
        }
      ],
      "stateMutability": "view",
      "type": "function"
    },
    {
      "inputs": [
        {
          "internalType": "uint256",
          "name": "swapAmount",
          "type": "uint256"
        }
      ],
      "name": "swap",
      "outputs": [],
      "stateMutability": "nonpayable",
      "type": "function"
    }
  ],
  "transactionHash": "0xc021cc3cd75de169935de878dfd7bbd4f31beabfdc9e7d6c5b4cd557e6335634",
  "args": [
    "0x5EcC0446e8AA72B9BD74B8935687e1E4cA3478d3",
    "0xF19547f9ED24aA66b03c3a552D181Ae334FBb8DB",
    "0x67E57A0ec37768eaF99a364975ec4E1f98920D01"
  ],
  "numDeployments": 6,
  "solcInputHash": "50828bed1eacb3bd0ab20d3109dab424",
  "bytecode": "0x608060405234801561001057600080fd5b506040516109d33803806109d383398101604081905261002f9161008e565b6001600081905580546001600160a01b039485166001600160a01b0319918216179091556002805493851693821693909317909255600380549190931691161790556100db565b6001600160a01b038116811461008b57600080fd5b50565b6000806000606084860312156100a357600080fd5b83516100ae81610076565b60208501519093506100bf81610076565b60408501519092506100d081610076565b809150509250925092565b6108e9806100ea6000396000f3fe608060405234801561001057600080fd5b506004361061007d5760003560e01c8063af0f24011161005b578063af0f2401146100b2578063b31c710a146100c5578063c42bd05a146100f4578063f851a4401461010757600080fd5b80631ba1b777146100825780633a74a7671461008c57806394b918de1461009f575b600080fd5b61008a61011a565b005b61008a61009a366004610749565b6101d8565b61008a6100ad366004610779565b6102a0565b61008a6100c0366004610779565b6102bb565b6001546100d8906001600160a01b031681565b6040516001600160a01b03909116815260200160405180910390f35b6002546100d8906001600160a01b031681565b6003546100d8906001600160a01b031681565b6003546001600160a01b0316331461014d5760405162461bcd60e51b815260040161014490610792565b60405180910390fd5b6002546040516370a0823160e01b81523060048201526000916001600160a01b0316906370a0823190602401602060405180830381865afa158015610196573d6000803e3d6000fd5b505050506040513d601f19601f820116820180604052508101906101ba91906107d8565b6002549091506101d5906001600160a01b03163033846102f9565b50565b6003546001600160a01b0316331461023e5760405162461bcd60e51b815260206004820152602360248201527f4f6e6c79207468652061646d696e206d6179207570646174652074686520616460448201526236b4b760e91b6064820152608401610144565b600380546001600160a01b038381166001600160a01b031983168117909355604080519190921680825260208201939093527ff16615eb8ea765f7ba93c4bdaba49adf2ea2840d855ecebf189fac383f3ab15691015b60405180910390a15050565b6102a8610359565b6102b1816103b3565b6101d56001600055565b6003546001600160a01b031633146102e55760405162461bcd60e51b815260040161014490610792565b6002546101d5906001600160a01b03163033845b604080516001600160a01b0385811660248301528416604482015260648082018490528251808303909101815260849091019091526020810180516001600160e01b03166323b872dd60e01b1790526103539085906104e5565b50505050565b600260005414156103ac5760405162461bcd60e51b815260206004820152601f60248201527f5265656e7472616e637947756172643a207265656e7472616e742063616c6c006044820152606401610144565b6002600055565b6001546040516370a0823160e01b81523360048201526000916001600160a01b0316906370a0823190602401602060405180830381865afa1580156103fc573d6000803e3d6000fd5b505050506040513d601f19601f8201168201806040525081019061042091906107d8565b9050808211156104725760405162461bcd60e51b815260206004820152601b60248201527f5377617020616d6f756e7420657863656564732062616c616e636500000000006044820152606401610144565b61047c82826107f1565b600154909150610497906001600160a01b03163330856102f9565b6002546104af906001600160a01b03163033856102f9565b60408051338152602081018490527fea3bb667c143cc56206b0480550c1c922ab78540548a0504f750fb2fe61ac8659101610294565b600061053a826040518060400160405280602081526020017f5361666545524332303a206c6f772d6c6576656c2063616c6c206661696c6564815250856001600160a01b03166105bc9092919063ffffffff16565b8051909150156105b757808060200190518101906105589190610816565b6105b75760405162461bcd60e51b815260206004820152602a60248201527f5361666545524332303a204552433230206f7065726174696f6e20646964206e6044820152691bdd081cdd58d8d9595960b21b6064820152608401610144565b505050565b60606105cb84846000856105d3565b949350505050565b6060824710156106345760405162461bcd60e51b815260206004820152602660248201527f416464726573733a20696e73756666696369656e742062616c616e636520666f6044820152651c8818d85b1b60d21b6064820152608401610144565b600080866001600160a01b031685876040516106509190610864565b60006040518083038185875af1925050503d806000811461068d576040519150601f19603f3d011682016040523d82523d6000602084013e610692565b606091505b50915091506106a3878383876106ae565b979650505050505050565b6060831561071a578251610713576001600160a01b0385163b6107135760405162461bcd60e51b815260206004820152601d60248201527f416464726573733a2063616c6c20746f206e6f6e2d636f6e74726163740000006044820152606401610144565b50816105cb565b6105cb838381511561072f5781518083602001fd5b8060405162461bcd60e51b81526004016101449190610880565b60006020828403121561075b57600080fd5b81356001600160a01b038116811461077257600080fd5b9392505050565b60006020828403121561078b57600080fd5b5035919050565b60208082526026908201527f4f6e6c79207468652061646d696e206d6179207472616e7366657220746f6b656040820152651b9cc81bdd5d60d21b606082015260800190565b6000602082840312156107ea57600080fd5b5051919050565b60008282101561081157634e487b7160e01b600052601160045260246000fd5b500390565b60006020828403121561082857600080fd5b8151801515811461077257600080fd5b60005b8381101561085357818101518382015260200161083b565b838111156103535750506000910152565b60008251610876818460208701610838565b9190910192915050565b602081526000825180602084015261089f816040850160208701610838565b601f01601f1916919091016040019291505056fea26469706673582212203c21f219f28bffb5c99fb622233d8ea23b30db5cf8c663f810066e1487ace28464736f6c634300080a0033",
  "devdoc": {
    "kind": "dev",
    "methods": {},
    "version": 1
  },
  "userdoc": {
    "kind": "user",
    "methods": {},
    "version": 1
  },
  "storageLayout": {
    "storage": [
      {
        "astId": 10,
        "contract": "contracts/TokenFIx.sol:TokenFix",
        "label": "_status",
        "offset": 0,
        "slot": "0",
        "type": "t_uint256"
      },
      {
        "astId": 1109,
        "contract": "contracts/TokenFIx.sol:TokenFix",
        "label": "oldToken",
        "offset": 0,
        "slot": "1",
        "type": "t_contract(IERC20)131"
      },
      {
        "astId": 1112,
        "contract": "contracts/TokenFIx.sol:TokenFix",
        "label": "newToken",
        "offset": 0,
        "slot": "2",
        "type": "t_contract(IERC20)131"
      },
      {
        "astId": 1114,
        "contract": "contracts/TokenFIx.sol:TokenFix",
        "label": "admin",
        "offset": 0,
        "slot": "3",
        "type": "t_address"
      }
    ],
    "types": {
      "t_address": {
        "encoding": "inplace",
        "label": "address",
        "numberOfBytes": "20"
      },
      "t_contract(IERC20)131": {
        "encoding": "inplace",
        "label": "contract IERC20",
        "numberOfBytes": "20"
      },
      "t_uint256": {
        "encoding": "inplace",
        "label": "uint256",
        "numberOfBytes": "32"
      }
    }
  }
}